:020000040800F2
:1000000010040020BD1A0008111B0008151B000871
:10001000191B00081D1B0008211B00080000000020
:10002000000000000000000000000000251B000888
:10003000291B0008000000002D1B0008DD1A000825
:10004000311B0008351B0008391B00083D1B000848
:10005000411B0008451B0008491B00084D1B0008F8
:10006000511B0008551B0008591B00085D1B0008A8
:10007000611B0008651B0008691B00086D1B000858
:10008000711B0008751B0008791B00087D1B000808
:10009000811B0008851B0008891B00088D1B0008B8
:1000A000911B0008951B0008991B00089D1B000868
:1000B000A11B0008A51B0008A91B0008AD1B000818
:1000C000B11B0008B51B0008B91B0008BD1B0008C8
:1000D000C11B0008C51B0008C91B0008CD1B000878
:1000E000D11B0008D51B0008D91B0008DD1B000828
:1000F000E11B0008E51B0008E91B0008ED1B0008D8
:10010000F11B0008F51B0008F91B0008FD1B000887
:10011000011C0008051C0008E11A0008091C000861
:100120000D1C0008111C0008151C0008191C0008F3
:100130001D1C0008211C0008251C0008291C0008A3
:100140002D1C0008311C0008351C0008391C000853
:100150003D1C0008411C0008451C0008491C000803
:100160004D1C0008511C0008551C0008591C0008B3
:100170005D1C0008611C0008651C000800000000F0
:10018000691C00086D1C000880B500F02BFA00F017
:1001900033FABDE8014000F068BA80B500F02CFAEF
:1001A000BDE8014000F01BBA704780B5FFF7ECFFD7
:1001B00000F072FA00F00BF800F0B7F800F09DF8CC
:1001C00000F075F800F057F8FFF7E7FFFEE700B51D
:1001D00093B006A80FF2C03191EC0C0B80EC0C0B25
:1001E00001A8142100F072FA00200090D94801689B
:1001F00041F080510160006800F08050009000984C
:1002000000200090D448016841F4804101600068FA
:1002100000F4804000900098012006904FF4803058
:10022000079002200C904FF480000D9004200E9057
:10023000A8200F90022010900720119006A800F02F
:1002400049FA002801D000F0A5F90F200190022002
:100250000290002003904FF4A05004904FF480507F
:100260000590052101A800F0AFFB002801D000F0A7
:1002700091F913B000BD10B5B84CB9482060A82062
:1002800060604FF08040A0600020E0604FF40030DC
:10029000206100206061A061A083204600F072FC14
:1002A000002801D000F076F90020A06010BD1CB538
:1002B0000FF21430D0E90023CDE90023A94CAA485D
:1002C000206000206060A0604AF20F40E0600020E3
:1002D000A061204600F096FD002801D000F05AF9F8
:1002E00010200090002001906946204600F0C6FED4
:1002F000002801D000F04EF913BD80B59B489C4901
:1003000001604FF49641416000218160C16001614C
:100310000C21416100218161C16100F0CFFE002804
:1003200002D0BDE8014035E101BD2DE9F04387B0C1
:1003300001A8142100F0CAF9002000908D4801683E
:1003400041F010010160016801F010010091009975
:1003500000210091016841F004010160016801F091
:1003600004010091009900210091016841F0800191
:100370000160016801F08001009100990021009165
:10038000016841F001010160016801F00101009183
:10039000009900210091016841F0020101600168AB
:1003A00001F002010091009900210091016841F0E3
:1003B00008010160006800F00800009000986E4C91
:1003C00000220821204601F0B6F86C4D01221146AA
:1003D000284601F0B0F84FF21006694F002231466E
:1003E000384601F0A8F80820019001200290002072
:1003F0000390049001A9204600F0CCFF0120019059
:10040000029000200390049001A9284600F0C2FF4A
:100410000820019002200290002003900490052003
:10042000059001A9284600F0B5FF0120019055482C
:10043000029000200390DFF8508101A9404600F0AF
:10044000A9FF102001900220029000200390049048
:100450000620059001A9404600F09CFFE020019095
:10046000022002900020039004900520059001A92D
:10047000404600F08FFF042001900020029003907E
:10048000DFF8089101A9484600F084FF4FF480602E
:100490000190022002900020039004900520059016
:1004A00001A9484600F076FF019601200290002045
:1004B0000390049001A9384600F06CFF4FF4A4505B
:1004C00001900220029000200390049006200590E5
:1004D00001A9284600F05EFF4FF400700190002053
:1004E0000290039001A9404600F054FF4FF4E05001
:1004F0000190022002900020039004900A200590B1
:1005000001A9404600F046FF202001900020029003
:10051000039001A9384600F03DFF4FF410700190A0
:1005200012200290012003900020049004200590E6
:1005300001A9484600F02EFF0220019014480290C5
:100540000020039001A9204600F024FF07B0BDE879
:10055000F08300004038024000700040D4040020C6
:100560000064004054040020001000409404002067
:1005700000440040303802400010024000080240B1
:10058000000C024000001110000002400004024074
:1005900000001210FEE70000000000000000000054
:1005A000000000000000000000000000000000004B
:1005B000000000000000000000000000000000003B
:1005C000000000000000000000000000000000002B
:1005D0000649884202D10648006800477047034830
:1005E00000F029BC03480249086070475404002009
:1005F00018050020A901000810B51348002141602A
:100600008160C160017544F6A00181610021C16172
:100610000162416281620D21C162002101630121F9
:1006200041638163094C00F11801204600F043FB4F
:10063000002801D0012010BD204600F0B2FB401E72
:100640008041C043C00F10BD10040020D40400201E
:1006500010B5002404E00C4951F820008047641CC8
:10066000E4B220460728F6DB10BD0020074A064BFF
:1006700002E043F82120401CC0B201460729F8DB04
:100680000348044908607047FC040020A9010008E1
:10069000510600081805002080B50B48016841F498
:1006A00000710160016841F480610160016841F4FA
:1006B00080710160032000F0B4FF002000F0D0FF43
:1006C00000F0F2FF002002BD003C0240002201F0D9
:1006D00095B800002DE9F04182B0040016D0B64D67
:1006E0002078C0074BD5A86800F00C00042807D07C
:1006F000A86800F00C0008280AD16868400207D5F5
:10070000286880033BD56068002838D1012050E17B
:100710006068B0F5803F04D1286840F480302860DC
:1007200012E0B0F5A02F286807D140F4802028609F
:10073000286840F48030286006E020F4803028608B
:10074000286820F480202860606800280BD001F021
:100750006FF806462868800311D401F069F8801B01
:100760006528F7D322E101F063F806462868800384
:1007700005D501F05DF8801B6528F7D316E12078D8
:10078000800718D5A86810F00C0F07D0A86800F0F3
:100790000C00082824D16868400221D4286880070A
:1007A00002D5E0680128B1D1286820F0F80021695D
:1007B00040EAC10028602078000747D57F4861697A
:1007C000002935D00121016001F032F80646686F3A
:1007D00080073BD401F02CF8801B0328F7D3E5E019
:1007E000774FE068002815D00120386001F020F82C
:1007F00006462868800705D401F01AF8801B0328F4
:10080000F7D3D3E0286820F0F800216940EAC1005E
:100810002860D0E70020386001F00AF80646286812
:100820008007C8D501F004F8801B0328F7D3BDE08A
:100830000021016000F0FCFF0646686F800705D5C7
:1008400000F0F6FF801B0328F7D3AFE020784007C5
:1008500067D50027286CC0000BD438460090286C60
:1008600040F080502864286C00F080500090009880
:100870000127DFF85081D8F80000C00512D4D8F85D
:10088000000040F48070C8F8000000F0D1FF064678
:10089000D8F80000C00505D400F0CAFF801B03286B
:1008A000F6D383E0A068012804D1286F40F001004E
:1008B000286711E00528286F07D140F00400286759
:1008C000286F40F00100286706E0400840002867D4
:1008D000286F20F004002867A06800280DD000F0E1
:1008E000A7FF0646286F800715D400F0A1FF801BE4
:1008F00041F289318842F5D358E000F099FF06466D
:10090000286F800707D500F093FF801B41F28931E3
:100910008842F5D34AE0012F03D1286C20F08050A3
:100920002864A069002843D0A96801F00C010829B7
:100930003FF4ECAE224F02282BD10020386600F0A5
:1009400077FF06462868800105D500F071FF801BFF
:100950000328F7D32AE0E069216A0843616A40EA84
:100960008110A16A891EC903090C50EA0140E16A9D
:1009700040EA016068600120386600F059FF0646D1
:100980002868800114D400F053FF801B0328F7D39C
:100990000CE00020386600F04BFF06462868800116
:1009A00006D500F045FF801B0328F7D3032000E0A5
:1009B0000020BDE8F68100BF00380240800E4742AB
:1009C00000004742007000402DE9F04104460D460A
:1009D000002C5BD04C4E306800F00F00A84205D2CE
:1009E0003570306800F00F00A8424FD12068474FA3
:1009F000810712D5400703D5B86840F4E050B860CD
:100A00002078000703D5B86840F46040B860B86843
:100A100020F0F000A1680843B8602078C0072AD50C
:100A20006068012803D1396889030BD42EE00228BD
:100A300001D0032803D13968890103D426E039683D
:100A4000890723D5B968890850EA8100B86000F0A9
:100A5000EFFE8046B86800F00C006168B0EB810FD3
:100A600009D000F0E5FEA0EB080041F28931884290
:100A7000F0D303202DE0306800F00F00854207D24C
:100A80003570306800F00F00A84201D0012020E04E
:100A90002078400705D5B86820F4E050E1680843A5
:100AA000B8602078000706D5B86820F46040216956
:100AB00040EAC100B86000F033F81549BA68C2F3E3
:100AC0000312895CC84013490860002000F0C8FD8B
:100AD0000020BDE8F0810F480068704780B5FFF73F
:100AE000FAFF0E490C4A1268C2F38222895CC840A0
:100AF00002BD80B5FFF7EFFF0849074A1268C2F34D
:100B00004232895CC84002BD003C024000380240CD
:100B10008C1900080C00002008380240081B00084F
:100B200010B5154C606800F00C00042802D00828AD
:100B300002D01EE0114810BD206800F03F020023E3
:100B4000206840022068C0F3881005D50B49A1FB3E
:100B5000000100F073FE04E00949A1FB000100F070
:100B60006DFE2168C1F30141491C4900B0FBF1F061
:100B700010BD034810BD00BF0438024000127A00C7
:100B80000024F40038B5040001D1012032BD94F8EE
:100B90002000002802D1204600F0A2FD2068016854
:100BA00021F00201016000F043FE05462068416823
:100BB00089070DD500F03CFE401B0B28F6D3606A78
:100BC00040F400306062052084F82000012032BD2E
:100BD000016841F00101016000F02AFE054620682D
:100BE0004168C9070DD400F023FE401B0B28F6D343
:100BF000606A40F400306062052084F82000012023
:100C000032BD217E0129016803D141F080010160DC
:100C100002E021F0800101602068617E0129016805
:100C200003D141F04001016002E021F04001016088
:100C30002068A17E0129016803D141F020010160F3
:100C400002E021F0200101602068E17E01290168B5
:100C500003D121F01001016002E041F010010160B8
:100C60002068217F0129016803D141F0080101605A
:100C700002E021F0080101602068617F012901681C
:100C800003D141F00401016002E021F004010160A0
:100C9000A068E16808432169084361690843616805
:100CA000491E08432168C86100206062012084F861
:100CB0002000002032BDF0B490F82020012A01D09D
:100CC000022A67D14D48026842F0010202600268C0
:100CD00022F47C52026002684B6A42EA03220260FC
:100CE00001220B7D03F01F039A40D343C4691C40CB
:100CF000C461CC69002C15D1C4681C40C460404C50
:100D00004D6904EBC505CE684F68C7EA0646C5F8CD
:100D100040624D6904EBC5048D680E68C6EA05455E
:100D2000C4F84452CC69012C15D1C4681443C46082
:100D3000334C4D6904EBC5050E684F68C7EA06469B
:100D4000C5F840624D6904EBC5048D68CE68C6EAFB
:100D50000545C4F844528C69002C446802D11C40FB
:100D6000446001E0144344600C69002C03D14469E1
:100D70002340436102E0436913434361096A012947
:100D800002D1C1691143C16101684908490001608C
:100D9000002004E0416A41F4802141620120F0BC5E
:100DA000704738B5044694F8200001281FD102206E
:100DB00084F820002068016849084900016000F0BB
:100DC00037FD054620684068C0070DD500F030FDAE
:100DD000401B0B28F6D3606A40F4003060620520A7
:100DE00084F82000012032BD0020606232BD606ABC
:100DF00040F400206062012032BD00000066004027
:100E00000064004038B5040001D1012032BD04F176
:100E10003C056878002804D100202870204600F0A6
:100E200091FC02206870211D206800F0BEF80120AE
:100E30006870002032BD0168CA6842F00102CA60D1
:100E40000068816801F00701062903D0016841F0BC
:100E5000010101600020704710B504462068016957
:100E6000890717D5C168890714D56FF002010161A0
:100E7000012020772068806910F0030F204602D0FF
:100E800000F053FD04E000F051FD204600F04FFD5E
:100E90000020207720680169490717D5C1684907F4
:100EA00014D56FF004010161022020772068806969
:100EB00010F4407F204602D000F037FD04E000F03F
:100EC00035FD204600F033FD0020207720680169C1
:100ED000090717D5C168090714D56FF0080101612A
:100EE000042020772068C06910F0030F204602D04C
:100EF00000F01BFD04E000F019FD204600F017FD96
:100F00000020207720680169C90617D5C168C90685
:100F100014D56FF010010161082020772068C069A6
:100F200010F4407F204602D000F0FFFC04E000F007
:100F3000FDFC204600F0FBFC0020207720680169C2
:100F4000C90708D5C168C90705D56FF0010101615E
:100F50002046FFF73DFB20680169090608D5C168F6
:100F6000090605D56FF080010161204600F0E0FC24
:100F700020680169490608D5C168490605D56FF0A2
:100F800040010161204600F0D4FC20680169890617
:100F90000AD5C168890607D56FF020010161204696
:100FA000BDE8104000F0C6BC10BD10B40368284A6C
:100FB00090420ED0B0F1804F0BD0264CA04208D00A
:100FC000254CA04205D0254CA04202D0244CA04282
:100FD00003D123F070034C682343904220D0B0F13A
:100FE000804F1DD01B4CA0421AD01B4CA04217D0E2
:100FF0001A4CA04214D01A4CA04211D0194CA04255
:101000000ED0194CA0420BD0184CA04208D0184C5E
:10101000A04205D0174CA04202D0174CA04203D1E9
:1010200023F44073CC68234323F080034C692343AB
:1010300003608B68C3620B688362904202D0084AE7
:10104000904201D1096901630121416110BC7047DF
:10105000000001400004004000080040000C004077
:1010600000040140004001400044014000480140AC
:1010700000180040001C00400020004070B400F147
:101080003C021378012B01D1022015E001231370DB
:101090000223537003685C689D6825F080054E68E4
:1010A000354324F070040968214359600068856065
:1010B000012050700020107070BC704738B50500DA
:1010C00001D1012032BD05F138046078002804D137
:1010D00000202070284600F051FB24206070286812
:1010E000C16821F40051C160284600F016F8286854
:1010F000016921F4904101612868416921F02A01C8
:1011000041612868C16841F40051C16000206060FD
:1011100020206070A070002032BD2DE9F04104460F
:101120002068016921F44051E2681143016120689F
:10113000C168954A1140A26811432269114362694E
:101140001143E2691143C1602068416921F4407193
:10115000A2691143416120688C49E269B2F5004FF0
:1011600040F08980884202D08949884241D1FFF706
:10117000C0FC0546FFF7BDFC0646FFF7BAFC074674
:10118000FFF7B7FC8046FFF7B4FC61684B006421B1
:1011900019225543B5FBF3F58C46B5FBFCF55643D8
:1011A000B6FBF3F65743B7FBF3F7B7FBFCF701FBCE
:1011B0001766F60032360F46B6FBF7F6760006F4F1
:1011C000F87606EB051502FB08F6B6FBF3F650437E
:1011D000B0FBF3F00A46B0FBF2F001FB1060C00078
:1011E0003230B0FBF1F000F0070040192168886050
:1011F000C7E0FFF773FC0546FFF770FC0646FFF7F4
:101200006DFC0746FFF76AFC8046FFF767FC6168E4
:101210004B00642119225543B5FBF3F58C46B5FB11
:10122000FCF55643B6FBF3F65743B7FBF3F7B7FBB2
:10123000FCF701FB1766F60032360F46B6FBF7F6F1
:10124000760006F4F87606EB051502FB08F6B6FB09
:10125000F3F65043B0FBF3F00A46B0FBF2F001FBAB
:101260001060C0003230B0FBF1F000F00700401910
:101270002168886085E0884202D04549884240D193
:10128000FFF737FC0546FFF734FC0646FFF731FC55
:101290000746FFF72EFC8046FFF72BFC61688B00AA
:1012A000642119225543B5FBF3F58C46B5FBFCF5DB
:1012B0005643B6FBF3F65743B7FBF3F7B7FBFCF720
:1012C00001FB1766360132360F46B6FBF7F606F01D
:1012D000F00606EB051502FB08F6B6FBF3F65043E5
:1012E000B0FBF3F00A46B0FBF2F001FB1060000126
:1012F0003230B0FBF1F000F00F0040192168886037
:101300003FE0FFF7EBFB0546FFF7E8FB0646FFF77C
:10131000E5FB0746FFF7E2FB8046FFF7DFFB61686E
:101320008B00642119225543B5FBF3F58C46B5FBC0
:10133000FCF55643B6FBF3F65743B7FBF3F7B7FBA1
:10134000FCF701FB1766360132360F46B6FBF7F69F
:1013500006F0F00606EB051502FB08F6B6FBF3F601
:101360005043B0FBF3F00A46B0FBF2F001FB106013
:1013700000013230B0FBF1F000F00F00401921689D
:101380008860BDE8F0810000F369FFFF00100140B4
:1013900000140140F8B4002225E04FF0080C0CFACC
:1013A00006F63E4345F82460664C2668DD432E4031
:1013B0004F68FF0300D51E43266066682E404F68C5
:1013C000BF0300D51E436660A6682E404F68FF022B
:1013D00000D51E43A660E66835404E68B60200D5CB
:1013E0001D43E560521C102A80F0A380012303FAFC
:1013F00002F40B682340A342F4D14D68022D01D0C2
:10140000122D12D1D50800EB8506356A970007F03A
:101410001C074FF00F0C0CFA07FC25EA0C05D1F85D
:1014200010C00CFA07F73D433562056856000327E4
:10143000B740FF433D4091F804C00CF0030C0CFA98
:1014400006FC4CEA050505604D68012D05D0022D0E
:1014500003D0112D01D0122D11D185683D40D1F856
:101460000CC00CFA06FC4CEA05058560456825EAC7
:1014700004044D68C5F3001595402C434460C568CD
:1014800007EA05048D68B5402C43C4604C68E4004D
:10149000A8D5002400942C4C256845F4804525608F
:1014A000246804F480440094009C9408274D55F867
:1014B00024C0970007F00C060F27B7402CEA070757
:1014C000DFF88CC0604502D14FF0000C67E7DFF811
:1014D00084C0604502D14FF0010C60E7DFF878C0AE
:1014E000604502D14FF0020C59E7DFF870C060454B
:1014F00002D14FF0030C52E7DFF864C0604502D11F
:101500004FF0040C4BE7DFF85CC0604502D14FF0B0
:10151000050C44E7DFF850C0604502D14FF0060CDF
:101520003DE7DFF848C060457FF437AF4FF0070C68
:1015300035E7F1BC7047002A01D08161704709048A
:1015400081617047003C0140443802400838014046
:10155000000002400004024000080240000C02406B
:10156000001002400014024000180240001C02401B
:1015700035490A684FF6FF031A40000200F4E060A4
:101580001043324A1043086070472F480068C0F388
:1015900002207047002807D4012100F01F0291406B
:1015A0002B4A400942F8201070470901020002D47A
:1015B000284881547047284802F00F02104400F870
:1015C000041C704710B400F00700C0F10703052B9E
:1015D00000D30423041D072C01D2002000E0C01E0C
:1015E000012404FA03F35B1E1940814004FA00F061
:1015F000401E1040084310BC704710B5401EB0F1AB
:10160000807F01D3012010BD144C60600F214FF08A
:10161000FF30FFF7CAFF0020A060072020600020F5
:1016200010BDA5E770B504460D461646FFF7ADFFA1
:1016300032462946FFF7C6FF01462046BDE8704006
:10164000B3E7A7E7D9E700000CED00E00000FA05DA
:1016500000E100E000E400E018ED00E010E000E050
:1016600038B504460E4D4FF47A702978B0FBF1F08E
:101670000C490968B1FBF0F0FFF7E4FF002801D046
:10168000012032BD102C08D2002221464FF0FF303D
:10169000FFF7C8FFAC60002032BD012032BD00BFA3
:1016A000000000200C00002082B0002000904C4878
:1016B000416841F480414160416801F480410091FA
:1016C000009900210091016841F08051016000689B
:1016D00000F0805000900098072002B0FFF7A1BFF3
:1016E00010B586B0044601A81421FEF7EFFF20686C
:1016F0003C49884224D1002000903B48016941F0D8
:1017000000710161016901F00071009100990021EF
:101710000091016841F008010160006800F00800D4
:101720000090009803200190022002900020039076
:10173000032004900920059001A92C48FFF72AFEF8
:1017400006B010BD80B500682949884215D1002037
:1017500000902348016841F010010160006800F02A
:10176000100000900098002211463620FFF75AFF23
:101770003620BDE80240FFF764BF01BD10B586B05A
:10178000044601A81421FEF7A1FF206819498842E8
:1017900024D1002000901448016941F40031016116
:1017A000016901F400310091009900210091016864
:1017B00041F001010160006800F001000090009814
:1017C0000C2001900220029001200390032004903D
:1017D0000720059001A90848FFF7DCFD06B010BD01
:1017E000403802400064004030380240000C0240A3
:1017F00000100040004400400000024000B500BF5F
:10180000130096469446103928BFA0E80C50FAD829
:101810005FEA417C28BF0CC048BF40F8042BC907D1
:1018200028BF20F8022B48BF00F8012B00BD0000A4
:1018300001484068704700BF000000201B4213D1E0
:10184000094236D12AB18446B0FBF2F002FB10C245
:10185000704700F071B8FCD30022002370470B00E2
:101860000200002100207047904271EB030CF6D378
:1018700070B5B1FA81F4B3FA83F52C1BA340C4F11F
:10188000200532FA05F63343A2405FF00046E640F9
:1018900002E05B085FEA3202841A71EB030524BFA1
:1018A000204629467641F4D302000B003000002187
:1018B00070BD012ACFD970B5140C20D0B1FA81F4D3
:1018C000B2FA82F5C4F120046419B4F12006D6D32B
:1018D000B2405FF00044F440002502E052085FEAA5
:1018E0003303C61A71EB020E24BF304671466441C1
:1018F0006D41F3D302000B002000290070BD0C469F
:10190000B1FBF2F102FB11452D0445EA1045B5FB90
:10191000F2F402FB145580B240EA0545B5FBF2F043
:1019200002FB105240EA044070BD70477047704798
:101930007047704770470000704700000E4801680C
:1019400041F4700101600D48016841F0010101603E
:101950000021816001680A4A114001600949416023
:10196000016821F4802101600021C1604FF0006016
:10197000054908607047000088ED00E0003802402B
:10198000FFFFF6FE1030002408ED00E0000000002C
:1019900000000000010203040607080919E050F8DE
:1019A000041BCB0744BFA9F101035918121F0023E0
:1019B000042A41F8043BF9D25FEA827C0B4604D545
:1019C0004FF0000CA1F800C09B1CD10744BF0021C0
:1019D000197050F8042B002AE1D1704710B450F868
:1019E000041B79B10268436802440830DC0744BF35
:1019F000A9F10104E31852F8044B43F8044B091F02
:101A0000F9D1ECE710BC704710B50749794418319B
:101A1000064C7C44163404E00A68081D11448847CB
:101A20000146A142F8D110BD2C0000004C0000007E
:101A30004EF68851CEF20001086840F4700008604C
:101A4000BFF34F8FBFF36F8F4FF00070E1EE100ABE
:101A50007047000049FFFFFF0C0100001004002048
:101A60000000000079FFFFFF100000008000000070
:101A7000000000200000000000F00BF8002801D05A
:101A8000FFF7C2FF0020AFF30080FEF78EFB00F0EF
:101A900002F80120704700F001B800000746384600
:101AA00000F002F8FBE7000080B5AFF30080024AC7
:101AB00011001820ABBEFBE726000200014880475A
:101AC000014800473D190008FD1A00080248416816
:101AD000027889184160704700000020FFF7F6BFC8
:101AE0000148FFF7B9B900005404002001000000CC
:101AF00000000000100000000024F400AFF300809C
:101B0000FFF796FFFFF7B8FF000000000102030493
:101B1000FFF7FEBFFFF7FEBFFFF7FEBFFFF7FEBFF9
:101B2000FFF7FEBFFFF7FEBFFFF7FEBFFFF7FEBFE9
:101B3000FFF7FEBFFFF7FEBFFFF7FEBFFFF7FEBFD9
:101B4000FFF7FEBFFFF7FEBFFFF7FEBFFFF7FEBFC9
:101B5000FFF7FEBFFFF7FEBFFFF7FEBFFFF7FEBFB9
:101B6000FFF7FEBFFFF7FEBFFFF7FEBFFFF7FEBFA9
:101B7000FFF7FEBFFFF7FEBFFFF7FEBFFFF7FEBF99
:101B8000FFF7FEBFFFF7FEBFFFF7FEBFFFF7FEBF89
:101B9000FFF7FEBFFFF7FEBFFFF7FEBFFFF7FEBF79
:101BA000FFF7FEBFFFF7FEBFFFF7FEBFFFF7FEBF69
:101BB000FFF7FEBFFFF7FEBFFFF7FEBFFFF7FEBF59
:101BC000FFF7FEBFFFF7FEBFFFF7FEBFFFF7FEBF49
:101BD000FFF7FEBFFFF7FEBFFFF7FEBFFFF7FEBF39
:101BE000FFF7FEBFFFF7FEBFFFF7FEBFFFF7FEBF29
:101BF000FFF7FEBFFFF7FEBFFFF7FEBFFFF7FEBF19
:101C0000FFF7FEBFFFF7FEBFFFF7FEBFFFF7FEBF08
:101C1000FFF7FEBFFFF7FEBFFFF7FEBFFFF7FEBFF8
:101C2000FFF7FEBFFFF7FEBFFFF7FEBFFFF7FEBFE8
:101C3000FFF7FEBFFFF7FEBFFFF7FEBFFFF7FEBFD8
:101C4000FFF7FEBFFFF7FEBFFFF7FEBFFFF7FEBFC8
:101C5000FFF7FEBFFFF7FEBFFFF7FEBFFFF7FEBFB8
:101C6000FFF7FEBFFFF7FEBFFFF7FEBFFFF7FEBFA8
:0400000508001AFDD8
:00000001FF
