:020000040800F2
:1000000010040020E11C0008351D0008391D0008FF
:100010003D1D0008411D0008451D000800000000AE
:10002000000000000000000000000000491D000862
:100030004D1D000800000000511D0008011D0008B2
:10004000551D0008591D00085D1D0008611D0008B0
:10005000651D0008691D00086D1D0008711D000860
:10006000751D0008791D00087D1D0008811D000810
:10007000851D0008891D00088D1D0008911D0008C0
:10008000951D0008991D00089D1D0008A11D000870
:10009000A51D0008A91D0008AD1D0008B11D000820
:1000A000B51D0008B91D0008BD1D0008C11D0008D0
:1000B000C51D0008C91D0008CD1D0008D11D000880
:1000C000D51D0008D91D0008DD1D0008E11D000830
:1000D000E51D0008E91D0008ED1D0008F11D0008E0
:1000E000F51D0008F91D0008FD1D0008011E00088F
:1000F000051E0008091E00080D1E0008111E00083C
:10010000151E0008191E00081D1E0008211E0008EB
:10011000251E0008291E0008051D00082D1E0008C8
:10012000311E0008351E0008391E00083D1E00085B
:10013000411E0008451E0008491E00084D1E00080B
:10014000511E0008551E0008591E00085D1E0008BB
:10015000611E0008651E0008691E00086D1E00086B
:10016000711E0008751E0008791E00087D1E00081B
:10017000811E0008851E0008891E0008000000007E
:100180008D1E0008911E000880B500F047FA00F0AF
:100190004FFABDE8014000F084BA80B500F048FA9B
:1001A000BDE8014000F037BA704780B5FFF7ECFFBB
:1001B00000F08EFA00F00DF800F0D2F800F0B8F878
:1001C00000F090F800F059F800F073F8FFF7E5FF41
:1001D000FEE700B593B006A80FF2F43191EC0C0BDA
:1001E00080EC0C0B01A8142100F08CFA0020009088
:1001F000E348016841F080510160006800F08050E0
:100200000090009800200090DE48016841F4804191
:100210000160006800F48040009000980120069082
:100220004FF48030079002200C904FF480000D9026
:1002300004200E90A8200F9002201090072011900B
:1002400006A800F063FA002801D000F0BFF90F20E3
:10025000019002200290002003904FF4A0500490DF
:100260004FF480500590052101A800F0C9FB00283B
:1002700001D000F0ABF913B000BD10B5C24CC348BB
:100280002060A82060604FF08040A0600020E06007
:100290004FF40030206100206061A061A0832046FF
:1002A00000F08CFC002801D000F090F90020A06044
:1002B00010BD80B5B648B7490160B749416000211B
:1002C0008160C1604FF48041016100214161816121
:1002D000C161016200F0B2FD002802D0BDE801401A
:1002E00074E101BD1CB50FF21830D0E90023CDE94F
:1002F0000023AA4CAA48206000206060A0604AF257
:100300000F40E0600020A061204600F055FE00286C
:1003100001D000F05BF910200090002001906946A8
:10032000204600F085FF002801D000F04FF913BDF2
:1003300080B59C489C4901604FF496414160002182
:100340008160C16001610C21416100218161C16155
:1003500000F08EFF002802D0BDE8014036E101BD6B
:100360002DE9F04387B001A8142100F0CBF900205B
:1003700000908E48016841F010010160016801F0B1
:1003800010010091009900210091016841F00401E1
:100390000160016801F004010091009900210091C1
:1003A000016841F080010160016801F08001009165
:1003B000009900210091016841F00101016001688C
:1003C00001F001010091009900210091016841F0C4
:1003D00002010160016801F0020100910099002111
:1003E0000091016841F008010160006800F0080018
:1003F000009000986E4C00224921204601F075F9CA
:100400006C4D01221146284601F06FF96A4E002218
:100410004FF4F071304601F068F94FF21007DFF841
:100420009C8100223946404601F05FF900224FF4DA
:100430004071284601F059F94920019001200290AD
:1004400000200390049001A9204601F07DF84FF4AC
:100450000050019000200290039001A9284601F06D
:1004600073F840F2013001900120029000200390C7
:10047000049001A9284601F067F8082001900220A5
:1004800002900020039004900520059001A92846C1
:1004900001F05AF801200190494802900020039091
:1004A00001A9304601F050F84FF4F070019001209E
:1004B000029000200390049001A9304601F044F816
:1004C00004200190002002900390DFF8F89001A929
:1004D000484601F039F84FF4806001900220029004
:1004E0000020039004900520059001A9484601F0E2
:1004F0002BF801970120029000200390049001A99D
:10050000404601F021F84FF4A450019002200290DF
:100510000020039004900620059001A9284601F0D0
:1005200013F84FF40070019000200290039001A98D
:10053000304601F009F84FF4E0500190022002909B
:100540000020039004900A20059001A9304600F095
:10055000FBFF2020019000200290039001A940465B
:1005600000F0F2FF02200190174802900020039053
:1005700001A9204600F0E8FF07B0BDE8F0830000C5
:100580004038024000700040280500200064004010
:100590001004002000540040A0860100A8040020A0
:1005A00000100040E80400200044004030380240C1
:1005B000001002400008024000000240000C02400F
:1005C000000011100004024000001210FEE70000BD
:1005D000000000000000000000000000000000001B
:1005E000000000000000000000000000000000000B
:1005F00000000000000000000000000000000000FB
:1006000000000000000000000649884202D10648B0
:10061000006800477047034800F0E7BC0348024900
:1006200008607047A80400206C050020A90100089C
:1006300010B51348002141608160C160017544F626
:10064000A00181610021C1610162416281620D21CD
:10065000C16200210163012141638163094C00F102
:100660001801204600F043FB002801D0012010BDF6
:10067000204600F0B2FB401E8041C043C00F10BDB9
:10068000640400202805002010B5002404E00C4973
:1006900051F820008047641CE4B220460728F6DBAE
:1006A00010BD0020074A064B02E043F82120401C01
:1006B000C0B201460729F8DB0348044908607047C7
:1006C00050050020A9010008890600086C050020DB
:1006D00080B50B48016841F400710160016841F484
:1006E00080610160016841F480710160032001F0C4
:1006F00072F8002001F08EF801F0B0F8002002BD81
:10070000003C0240002201F08BB900002DE9F041CD
:1007100082B0040016D0B64D2078C0074BD5A8682B
:1007200000F00C00042807D0A86800F00C0008288E
:100730000AD16868400207D5286880033BD5606805
:10074000002838D1012050E16068B0F5803F04D125
:10075000286840F48030286012E0B0F5A02F2868A7
:1007600007D140F480202860286840F48030286059
:1007700006E020F480302860286820F4802028607B
:10078000606800280BD001F065F9064628688003F0
:1007900011D401F05FF9801B6528F7D322E101F045
:1007A00059F906462868800305D501F053F9801BE6
:1007B0006528F7D316E12078800718D5A86810F0CF
:1007C0000C0F07D0A86800F00C00082824D1686836
:1007D000400221D42868800702D5E0680128B1D101
:1007E000286820F0F800216940EAC10028602078DC
:1007F000000747D57F486169002935D00121016094
:1008000001F028F90646686F80073BD401F022F911
:10081000801B0328F7D3E5E0774FE068002815D068
:100820000120386001F016F906462868800705D4D3
:1008300001F010F9801B0328F7D3D3E0286820F0DB
:10084000F800216940EAC1002860D0E70020386044
:1008500001F000F9064628688007C8D501F0FAF8CB
:10086000801B0328F7D3BDE00021016001F0F2F8FE
:100870000646686F800705D501F0ECF8801B032859
:10088000F7D3AFE02078400767D50027286CC00079
:100890000BD438460090286C40F080502864286CB7
:1008A00000F08050009000980127DFF85081D8F8C0
:1008B0000000C00512D4D8F8000040F48070C8F8D9
:1008C000000001F0C7F80646D8F80000C00505D4BE
:1008D00001F0C0F8801B0328F6D383E0A06801284C
:1008E00004D1286F40F00100286711E00528286F27
:1008F00007D140F004002867286F40F00100286706
:1009000006E0400840002867286F20F004002867B0
:10091000A06800280DD001F09DF80646286F8007DA
:1009200015D401F097F8801B41F289318842F5D344
:1009300058E001F08FF80646286F800707D501F0D0
:1009400089F8801B41F289318842F5D34AE0012FB2
:1009500003D1286C20F080502864A069002843D07F
:10096000A96801F00C0108293FF4ECAE224F0228DF
:100970002BD10020386601F06DF80646286880010A
:1009800005D501F067F8801B0328F7D32AE0E0695A
:10099000216A0843616A40EA8110A16A891EC9037D
:1009A000090C50EA0140E16A40EA016068600120F8
:1009B000386601F04FF806462868800114D401F02B
:1009C00049F8801B0328F7D30CE00020386601F0BB
:1009D00041F806462868800106D501F03BF8801BE7
:1009E0000328F7D3032000E00020BDE8F68100BF14
:1009F00000380240800E474200004742007000402D
:100A00002DE9F04104460D46002C5BD04C4E306879
:100A100000F00F00A84205D23570306800F00F00DA
:100A2000A8424FD12068474F810712D5400703D510
:100A3000B86840F4E050B8602078000703D5B86883
:100A400040F46040B860B86820F0F000A168084346
:100A5000B8602078C0072AD56068012803D13968BA
:100A600089030BD42EE0022801D0032803D1396872
:100A7000890103D426E03968890723D5B968890834
:100A800050EA8100B86000F0E5FF8046B86800F0E9
:100A90000C006168B0EB810F09D000F0DBFFA0EB28
:100AA000080041F289318842F0D303202DE03068FC
:100AB00000F00F00854207D23570306800F00F005B
:100AC000A84201D0012020E02078400705D5B86871
:100AD00020F4E050E1680843B8602078000706D5AC
:100AE000B86820F46040216940EAC100B86000F0B5
:100AF00033F81549BA68C2F30312895CC840134938
:100B00000860002000F086FE0020BDE8F0810F485C
:100B10000068704780B5FFF7FAFF0E490C4A12686B
:100B2000C2F38222895CC84002BD80B5FFF7EFFFA7
:100B30000849074A1268C2F34232895CC84002BDC4
:100B4000003C024000380240B01B00080C000020AE
:100B5000083802402C1D000810B5154C606800F0E4
:100B60000C00042802D0082802D01EE0114810BD55
:100B7000206800F03F020023206840022068C0F394
:100B8000881005D50B49A1FB000100F069FF04E0C6
:100B90000949A1FB000100F063FF2168C1F3014195
:100BA000491C4900B0FBF1F010BD034810BD00BF67
:100BB0000438024000127A000024F40038B5040022
:100BC00001D1012032BD94F82000002802D1204636
:100BD00000F060FE2068016821F00201016000F071
:100BE00039FF05462068416889070DD500F032FFBE
:100BF000401B0B28F6D3606A40F400306062052089
:100C000084F82000012032BD016841F0010101603B
:100C100000F020FF054620684168C9070DD400F0A8
:100C200019FF401B0B28F6D3606A40F40030606265
:100C3000052084F82000012032BD217E01290168B1
:100C400003D141F08001016002E021F080010160E8
:100C50002068617E0129016803D141F040010160F3
:100C600002E021F0400101602068A17E01290168B5
:100C700003D141F02001016002E021F02001016078
:100C80002068E17E0129016803D121F01001016093
:100C900002E041F0100101602068217F0129016814
:100CA00003D141F00801016002E021F00801016078
:100CB0002068617F0129016803D141F004010160CE
:100CC00002E021F004010160A068E16808432169A5
:100CD0000843616908436168491E08432168C86187
:100CE00000206062012084F82000002032BDF0B4B2
:100CF00090F82020012A01D0022A67D14D480268CD
:100D000042F001020260026822F47C520260026832
:100D10004B6A42EA0322026001220B7D03F01F03AB
:100D20009A40D343C4691C40C461CC69002C15D1DE
:100D3000C4681C40C460404C4D6904EBC505CE68D6
:100D40004F68C7EA0646C5F840624D6904EBC50422
:100D50008D680E68C6EA0545C4F84452CC69012C7A
:100D600015D1C4681443C460334C4D6904EBC50508
:100D70000E684F68C7EA0646C5F840624D6904EB45
:100D8000C5048D68CE68C6EA0545C4F844528C692E
:100D9000002C446802D11C40446001E014434460CC
:100DA0000C69002C03D144692340436102E043698C
:100DB00013434361096A012902D1C1691143C16129
:100DC0000168490849000160002004E0416A41F4DB
:100DD000802141620120F0BC704738B5044694F888
:100DE000200001281FD1022084F82000206801681B
:100DF00049084900016000F02DFE05462068406862
:100E0000C0070DD500F026FE401B0B28F6D3606A04
:100E100040F400306062052084F82000012032BDDB
:100E20000020606232BD606A40F4002060620120F0
:100E300032BD00000066004000640040F8B50400C8
:100E400024D004F13C056878002804D100202870E3
:100E5000204600F051FD2420687020680168490890
:100E600049000160FFF756FEDFF8341162688A42DC
:100E700005D2DFF8302190429241D20F04E0DFF832
:100E8000282190429241D20F012A01D10120F2BDC6
:100E9000DFF81821B0FBF2F322685668B60953EA6E
:100EA000861656602268166A67688F4201D25B1CFC
:100EB00007E04FF496777B434FF47A77B3FBF7F371
:100EC0005B1CB60953EA861313622268D36966680D
:100ED000401E8E4209D27100B0FBF1F0401CC0F3FD
:100EE0000B0004282ED204202CE0A168002907D191
:100EF00006EB4607B0FBF7F77F1CC7F30B0708E0CC
:100F000019277743B0FBF7F77F1CC7F30B0747F4AC
:100F100080473F0501D1012014E0002907D106EBED
:100F20004601B0FBF1F0401CC0F30B0008E01921B2
:100F30007143B0FBF1F0401CC0F30B0040F4804063
:100F400040F40040DFF8681019400843D061206881
:100F5000016821F0C001E2691143226A1143016076
:100F600020688168DFF84C20114022691143E26853
:100F7000114381602068C168090AA26963691A4344
:100F800052EA0121C1602068016841F0010101605D
:100F9000002068602020687000202063A870F2BDE7
:100FA000A186010080841E0000093D0040420F0020
:100FB0000030FFFF007CFFFF38B5040001D10120A5
:100FC00032BD04F13C056878002804D10020287067
:100FD000204600F0C4FC02206870211D206800F04B
:100FE000BEF801206870002032BD0168CA6842F076
:100FF0000102CA600068816801F00701062903D078
:10100000016841F0010101600020704710B50446FD
:1010100020680169890717D5C168890714D56FF061
:1010200002010161012020772068806910F0030F20
:10103000204602D000F08BFD04E000F089FD204640
:1010400000F087FD0020207720680169490717D547
:10105000C168490714D56FF00401016102202077AF
:101060002068806910F4407F204602D000F06FFDB8
:1010700004E000F06DFD204600F06BFD00202077BD
:1010800020680169090717D5C168090714D56FF0F1
:1010900008010161042020772068C06910F0030F67
:1010A000204602D000F053FD04E000F051FD204640
:1010B00000F04FFD0020207720680169C90617D590
:1010C000C168C90614D56FF01001016108202077AE
:1010D0002068C06910F4407F204602D000F037FD40
:1010E00004E000F035FD204600F033FD00202077BD
:1010F00020680169C90708D5C168C90705D56FF01F
:10110000010101612046FFF77FFA206801690906A5
:1011100008D5C168090605D56FF080010161204638
:1011200000F018FD20680169490608D5C168490624
:1011300005D56FF040010161204600F00CFD2068EC
:10114000016989060AD5C168890607D56FF02001B3
:1011500001612046BDE8104000F0FEBC10BD10B497
:101160000368284A90420ED0B0F1804F0BD0264C35
:10117000A04208D0254CA04205D0254CA04202D068
:10118000244CA04203D123F070034C6823439042C7
:1011900020D0B0F1804F1DD01B4CA0421AD01B4C68
:1011A000A04217D01A4CA04214D01A4CA04211D021
:1011B000194CA0420ED0194CA0420BD0184CA042A2
:1011C00008D0184CA04205D0174CA04202D0174CB2
:1011D000A04203D123F44073CC68234323F080035F
:1011E0004C69234303608B68C3620B68836290423F
:1011F00002D0084A904201D109690163012141618D
:1012000010BC70470000014000040040000800408E
:10121000000C004000040140004001400044014037
:101220000048014000180040001C00400020004021
:1012300070B400F13C021378012B01D1022015E0BB
:10124000012313700223537003685C689D6825F0C6
:1012500080054E68354324F07004096821435960C5
:1012600000688560012050700020107070BC7047CD
:1012700038B5050001D1012032BD05F13804607890
:10128000002804D100202070284600F084FB242090
:1012900060702868C16821F40051C160284600F0E0
:1012A00016F82868016921F49041016128684169B4
:1012B00021F02A0141612868C16841F40051C160F0
:1012C0000020606020206070A070002032BD2DE9F9
:1012D000F04104462068016921F44051E26811435D
:1012E00001612068C168954A1140A26811432269D2
:1012F000114362691143E2691143C1602068416989
:1013000021F44071A2691143416120688C49E2696E
:10131000B2F5004F40F08980884202D08949884266
:1013200041D1FFF702FC0546FFF7FFFB0646FFF73A
:10133000FCFB0746FFF7F9FB8046FFF7F6FB616809
:101340004B00642119225543B5FBF3F58C46B5FBE0
:10135000FCF55643B6FBF3F65743B7FBF3F7B7FB81
:10136000FCF701FB1766F60032360F46B6FBF7F6C0
:10137000760006F4F87606EB051502FB08F6B6FBD8
:10138000F3F65043B0FBF3F00A46B0FBF2F001FB7A
:101390001060C0003230B0FBF1F000F007004019DF
:1013A00021688860C7E0FFF7B5FB0546FFF7B2FB91
:1013B0000646FFF7AFFB0746FFF7ACFB8046FFF79B
:1013C000A9FB61684B00642119225543B5FBF3F575
:1013D0008C46B5FBFCF55643B6FBF3F65743B7FB1B
:1013E000F3F7B7FBFCF701FB1766F60032360F4642
:1013F000B6FBF7F6760006F4F87606EB051502FB69
:1014000008F6B6FBF3F65043B0FBF3F00A46B0FB28
:10141000F2F001FB1060C0003230B0FBF1F000F0E0
:10142000070040192168886085E0884202D045495C
:10143000884240D1FFF779FB0546FFF776FB064669
:10144000FFF773FB0746FFF770FB8046FFF76DFB66
:1014500061688B00642119225543B5FBF3F58C4676
:10146000B5FBFCF55643B6FBF3F65743B7FBF3F772
:10147000B7FBFCF701FB1766360132360F46B6FBA9
:10148000F7F606F0F00606EB051502FB08F6B6FBCC
:10149000F3F65043B0FBF3F00A46B0FBF2F001FB69
:1014A000106000013230B0FBF1F000F00F00401985
:1014B000216888603FE0FFF72DFB0546FFF72AFB18
:1014C0000646FFF727FB0746FFF724FB8046FFF79A
:1014D00021FB61688B00642119225543B5FBF3F5AC
:1014E0008C46B5FBFCF55643B6FBF3F65743B7FB0A
:1014F000F3F7B7FBFCF701FB1766360132360F46F0
:10150000B6FBF7F606F0F00606EB051502FB08F64B
:10151000B6FBF3F65043B0FBF3F00A46B0FBF2F033
:1015200001FB106000013230B0FBF1F000F00F0061
:10153000401921688860BDE8F0810000F369FFFF71
:101540000010014000140140F8B4002225E04FF0E3
:10155000080C0CFA06F63E4345F82460664C2668F3
:10156000DD432E404F68FF0300D51E4326606668AA
:101570002E404F68BF0300D51E436660A6682E400C
:101580004F68FF0200D51E43A660E66835404E68EE
:10159000B60200D51D43E560521C102A80F0A380DE
:1015A000012303FA02F40B682340A342F4D14D68EF
:1015B000022D01D0122D12D1D50800EB8506356A17
:1015C000970007F01C074FF00F0C0CFA07FC25EAF8
:1015D0000C05D1F810C00CFA07F73D4335620568D9
:1015E00056000327B740FF433D4091F804C00CF07C
:1015F000030C0CFA06FC4CEA050505604D68012D4C
:1016000005D0022D03D0112D01D0122D11D18568E6
:101610003D40D1F80CC00CFA06FC4CEA050585608B
:10162000456825EA04044D68C5F3001595402C4330
:101630004460C56807EA05048D68B5402C43C46062
:101640004C68E400A8D5002400942C4C256845F48F
:1016500080452560246804F480440094009C94082C
:10166000274D55F824C0970007F00C060F27B74008
:101670002CEA0707DFF88CC0604502D14FF0000C60
:1016800067E7DFF884C0604502D14FF0010C60E7E6
:10169000DFF878C0604502D14FF0020C59E7DFF85F
:1016A00070C0604502D14FF0030C52E7DFF864C010
:1016B000604502D14FF0040C4BE7DFF85CC0604599
:1016C00002D14FF0050C44E7DFF850C0604502D16D
:1016D0004FF0060C3DE7DFF848C060457FF437AFB8
:1016E0004FF0070C35E7F1BC7047002A01D081614B
:1016F0007047090481617047003C01404438024052
:101700000838014000000240000402400008024086
:10171000000C024000100240001402400018024079
:10172000001C024035490A684FF6FF031A400002C8
:1017300000F4E0601043324A1043086070472F48BD
:101740000068C0F302207047002807D4012100F090
:101750001F0291402B4A400942F8201070470901AE
:10176000020002D4284881547047284802F00F0232
:10177000104400F8041C704710B400F00700C0F1DA
:101780000703052B00D30423041D072C01D20020DE
:1017900000E0C01E012404FA03F35B1E19408140DF
:1017A00004FA00F0401E1040084310BC704710B50A
:1017B000401EB0F1807F01D3012010BD144C606049
:1017C0000F214FF0FF30FFF7CAFF0020A060072075
:1017D0002060002010BDA5E770B504460D461646F2
:1017E000FFF7ADFF32462946FFF7C6FF0146204608
:1017F000BDE87040B3E7A7E7D9E700000CED00E0D3
:101800000000FA0500E100E000E400E018ED00E06F
:1018100010E000E038B504460E4D4FF47A70297898
:10182000B0FBF1F00C490968B1FBF0F0FFF7E4FF01
:10183000002801D0012032BD102C08D20022214600
:101840004FF0FF30FFF7C8FFAC60002032BD012031
:1018500032BD00BF000000200C00002082B000203C
:1018600000906648416841F480414160416801F45C
:1018700080410091009900210091016841F0805160
:101880000160006800F0805000900098072002B0CE
:10189000FFF7A1BF10B586B0044601A81421FEF7DA
:1018A00031FF20685649884224D1002000905548D5
:1018B000016941F000710161016901F0007100915D
:1018C000009900210091016841F008010160006861
:1018D00000F0080000900098032001900220029080
:1018E00000200390032004900920059001A9464898
:1018F000FFF72AFE06B010BD10B586B0044601A859
:101900001421FEF7FFFE20684049884225D10020BF
:1019100000903C4C206840F002002060206800F0FD
:101920000200009000984FF4107001901220029075
:1019300001200390002004900420059001A9344860
:10194000FFF702FE00200090206940F400102061A3
:10195000206900F400100090009806B010BD80B51A
:1019600000682C49884215D1002000902348016866
:1019700041F010010160006800F010000090009834
:10198000002211463620FFF727FF3620BDE802402F
:10199000FFF731BF01BD10B586B0044601A8142180
:1019A000FEF7B0FE20681C49884224D10020009038
:1019B0001448016941F400310161016901F4003109
:1019C0000091009900210091016841F0010101603E
:1019D000006800F00100009000980C2001900220A7
:1019E000029001200390032004900720059001A994
:1019F0000A48FFF7A9FD06B010BD000040380240BC
:101A00000064004030380240000C024000540040A6
:101A1000000402400010004000440040000002406A
:101A200000B500BF130096469446103928BFA0E8C1
:101A30000C50FAD85FEA417C28BF0CC048BF40F880
:101A4000042BC90728BF20F8022B48BF00F8012B40
:101A500000BD000001484068704700BF0000002042
:101A60001B4213D1094236D12AB18446B0FBF2F0B1
:101A700002FB10C2704700F071B8FCD300220023B3
:101A800070470B000200002100207047904271EB6C
:101A9000030CF6D370B5B1FA81F4B3FA83F52C1BBD
:101AA000A340C4F1200532FA05F63343A2405FF0AB
:101AB0000046E64002E05B085FEA3202841A71EBFE
:101AC000030524BF204629467641F4D302000B00CB
:101AD0003000002170BD012ACFD970B5140C20D080
:101AE000B1FA81F4B2FA82F5C4F120046419B4F1B8
:101AF0002006D6D3B2405FF00044F440002502E057
:101B000052085FEA3303C61A71EB020E24BF304657
:101B1000714664416D41F3D302000B00200029009F
:101B200070BD0C46B1FBF2F102FB11452D0445EAF4
:101B30001045B5FBF2F402FB145580B240EA0545AE
:101B4000B5FBF2F002FB105240EA044070BD704752
:101B5000704770477047704770470000704700003B
:101B60000E48016841F4700101600D48016841F0C0
:101B7000010101600021816001680A4A1140016091
:101B800009494160016821F4802101600021C160A0
:101B90004FF00060054908607047000088ED00E0E4
:101BA00000380240FFFFF6FE1030002408ED00E090
:101BB00000000000000000000102030406070809FD
:101BC00019E050F8041BCB0744BFA9F101035918D1
:101BD000121F0023042A41F8043BF9D25FEA827CF9
:101BE0000B4604D54FF0000CA1F800C09B1CD10798
:101BF00044BF0021197050F8042B002AE1D170472E
:101C000010B450F8041B79B10268436802440830EC
:101C1000DC0744BFA9F10104E31852F8044B43F870
:101C2000044B091FF9D1ECE710BC704710B5074908
:101C300079441831064C7C44163404E00A68081DC7
:101C4000114488470146A142F8D110BD2C00000084
:101C50004C0000004EF68851CEF20001086840F4B6
:101C600070000860BFF34F8FBFF36F8F4FF00070AD
:101C7000E1EE100A7047000049FFFFFF600100001D
:101C8000100400200000000079FFFFFF100000009A
:101C900080000000000000200000000000F00BF8B1
:101CA000002801D0FFF7C2FF0020AFF30080FEF74D
:101CB0007CFA00F002F80120704700F001B8000043
:101CC0000746384600F002F8FBE7000080B5AFF3A6
:101CD0000080024A11001820ABBEFBE7260002007C
:101CE0000148804701480047611B0008211D00088A
:101CF000024841680278891841607047000000205E
:101D0000FFF7F6BF0148FFF781B90000A8040020E3
:101D10000100000000000000100000000024F4009A
:101D2000AFF30080FFF796FFFFF7B8FF0000000059
:101D300001020304FFF7FEBFFFF7FEBFFFF7FEBF80
:101D4000FFF7FEBFFFF7FEBFFFF7FEBFFFF7FEBFC7
:101D5000FFF7FEBFFFF7FEBFFFF7FEBFFFF7FEBFB7
:101D6000FFF7FEBFFFF7FEBFFFF7FEBFFFF7FEBFA7
:101D7000FFF7FEBFFFF7FEBFFFF7FEBFFFF7FEBF97
:101D8000FFF7FEBFFFF7FEBFFFF7FEBFFFF7FEBF87
:101D9000FFF7FEBFFFF7FEBFFFF7FEBFFFF7FEBF77
:101DA000FFF7FEBFFFF7FEBFFFF7FEBFFFF7FEBF67
:101DB000FFF7FEBFFFF7FEBFFFF7FEBFFFF7FEBF57
:101DC000FFF7FEBFFFF7FEBFFFF7FEBFFFF7FEBF47
:101DD000FFF7FEBFFFF7FEBFFFF7FEBFFFF7FEBF37
:101DE000FFF7FEBFFFF7FEBFFFF7FEBFFFF7FEBF27
:101DF000FFF7FEBFFFF7FEBFFFF7FEBFFFF7FEBF17
:101E0000FFF7FEBFFFF7FEBFFFF7FEBFFFF7FEBF06
:101E1000FFF7FEBFFFF7FEBFFFF7FEBFFFF7FEBFF6
:101E2000FFF7FEBFFFF7FEBFFFF7FEBFFFF7FEBFE6
:101E3000FFF7FEBFFFF7FEBFFFF7FEBFFFF7FEBFD6
:101E4000FFF7FEBFFFF7FEBFFFF7FEBFFFF7FEBFC6
:101E5000FFF7FEBFFFF7FEBFFFF7FEBFFFF7FEBFB6
:101E6000FFF7FEBFFFF7FEBFFFF7FEBFFFF7FEBFA6
:101E7000FFF7FEBFFFF7FEBFFFF7FEBFFFF7FEBF96
:101E8000FFF7FEBFFFF7FEBFFFF7FEBFFFF7FEBF86
:041E9000FFF7FEBF9B
:0400000508001D21B1
:00000001FF
